{
  "_format": "hh-sol-artifact-1",
  "contractName": "NFTMarket",
  "sourceName": "contracts/NFTMarketplace.sol",
  "abi": [
    {
      "inputs": [],
      "stateMutability": "nonpayable",
      "type": "constructor"
    },
    {
      "anonymous": false,
      "inputs": [
        {
          "indexed": true,
          "internalType": "address",
          "name": "owner",
          "type": "address"
        },
        {
          "indexed": true,
          "internalType": "address",
          "name": "approved",
          "type": "address"
        },
        {
          "indexed": true,
          "internalType": "uint256",
          "name": "tokenId",
          "type": "uint256"
        }
      ],
      "name": "Approval",
      "type": "event"
    },
    {
      "anonymous": false,
      "inputs": [
        {
          "indexed": true,
          "internalType": "address",
          "name": "owner",
          "type": "address"
        },
        {
          "indexed": true,
          "internalType": "address",
          "name": "operator",
          "type": "address"
        },
        {
          "indexed": false,
          "internalType": "bool",
          "name": "approved",
          "type": "bool"
        }
      ],
      "name": "ApprovalForAll",
      "type": "event"
    },
    {
      "anonymous": false,
      "inputs": [
        {
          "indexed": true,
          "internalType": "uint256",
          "name": "tokenId",
          "type": "uint256"
        },
        {
          "indexed": false,
          "internalType": "address",
          "name": "seller",
          "type": "address"
        },
        {
          "indexed": false,
          "internalType": "address",
          "name": "owner",
          "type": "address"
        },
        {
          "indexed": false,
          "internalType": "uint256",
          "name": "price",
          "type": "uint256"
        },
        {
          "indexed": false,
          "internalType": "bool",
          "name": "sold",
          "type": "bool"
        }
      ],
      "name": "MarketItemCreated",
      "type": "event"
    },
    {
      "anonymous": false,
      "inputs": [
        {
          "indexed": true,
          "internalType": "address",
          "name": "from",
          "type": "address"
        },
        {
          "indexed": true,
          "internalType": "address",
          "name": "to",
          "type": "address"
        },
        {
          "indexed": true,
          "internalType": "uint256",
          "name": "tokenId",
          "type": "uint256"
        }
      ],
      "name": "Transfer",
      "type": "event"
    },
    {
      "inputs": [
        {
          "internalType": "address",
          "name": "to",
          "type": "address"
        },
        {
          "internalType": "uint256",
          "name": "tokenId",
          "type": "uint256"
        }
      ],
      "name": "approve",
      "outputs": [],
      "stateMutability": "nonpayable",
      "type": "function"
    },
    {
      "inputs": [
        {
          "internalType": "address",
          "name": "owner",
          "type": "address"
        }
      ],
      "name": "balanceOf",
      "outputs": [
        {
          "internalType": "uint256",
          "name": "",
          "type": "uint256"
        }
      ],
      "stateMutability": "view",
      "type": "function"
    },
    {
      "inputs": [
        {
          "internalType": "uint256",
          "name": "tokenId",
          "type": "uint256"
        }
      ],
      "name": "createMarketSale",
      "outputs": [],
      "stateMutability": "payable",
      "type": "function"
    },
    {
      "inputs": [
        {
          "internalType": "string",
          "name": "tokenURI",
          "type": "string"
        },
        {
          "internalType": "uint256",
          "name": "price",
          "type": "uint256"
        }
      ],
      "name": "createToken",
      "outputs": [
        {
          "internalType": "uint256",
          "name": "",
          "type": "uint256"
        }
      ],
      "stateMutability": "payable",
      "type": "function"
    },
    {
      "inputs": [],
      "name": "fetchItemsListed",
      "outputs": [
        {
          "components": [
            {
              "internalType": "uint256",
              "name": "tokenId",
              "type": "uint256"
            },
            {
              "internalType": "address payable",
              "name": "seller",
              "type": "address"
            },
            {
              "internalType": "address payable",
              "name": "owner",
              "type": "address"
            },
            {
              "internalType": "uint256",
              "name": "price",
              "type": "uint256"
            },
            {
              "internalType": "bool",
              "name": "sold",
              "type": "bool"
            }
          ],
          "internalType": "struct NFTMarket.MarketItem[]",
          "name": "",
          "type": "tuple[]"
        }
      ],
      "stateMutability": "view",
      "type": "function"
    },
    {
      "inputs": [],
      "name": "fetchMarketItems",
      "outputs": [
        {
          "components": [
            {
              "internalType": "uint256",
              "name": "tokenId",
              "type": "uint256"
            },
            {
              "internalType": "address payable",
              "name": "seller",
              "type": "address"
            },
            {
              "internalType": "address payable",
              "name": "owner",
              "type": "address"
            },
            {
              "internalType": "uint256",
              "name": "price",
              "type": "uint256"
            },
            {
              "internalType": "bool",
              "name": "sold",
              "type": "bool"
            }
          ],
          "internalType": "struct NFTMarket.MarketItem[]",
          "name": "",
          "type": "tuple[]"
        }
      ],
      "stateMutability": "view",
      "type": "function"
    },
    {
      "inputs": [],
      "name": "fetchMyNFTs",
      "outputs": [
        {
          "components": [
            {
              "internalType": "uint256",
              "name": "tokenId",
              "type": "uint256"
            },
            {
              "internalType": "address payable",
              "name": "seller",
              "type": "address"
            },
            {
              "internalType": "address payable",
              "name": "owner",
              "type": "address"
            },
            {
              "internalType": "uint256",
              "name": "price",
              "type": "uint256"
            },
            {
              "internalType": "bool",
              "name": "sold",
              "type": "bool"
            }
          ],
          "internalType": "struct NFTMarket.MarketItem[]",
          "name": "",
          "type": "tuple[]"
        }
      ],
      "stateMutability": "view",
      "type": "function"
    },
    {
      "inputs": [
        {
          "internalType": "uint256",
          "name": "tokenId",
          "type": "uint256"
        }
      ],
      "name": "getApproved",
      "outputs": [
        {
          "internalType": "address",
          "name": "",
          "type": "address"
        }
      ],
      "stateMutability": "view",
      "type": "function"
    },
    {
      "inputs": [],
      "name": "getListingPrice",
      "outputs": [
        {
          "internalType": "uint256",
          "name": "",
          "type": "uint256"
        }
      ],
      "stateMutability": "view",
      "type": "function"
    },
    {
      "inputs": [
        {
          "internalType": "uint256",
          "name": "id",
          "type": "uint256"
        }
      ],
      "name": "getNftOwner",
      "outputs": [
        {
          "internalType": "address",
          "name": "",
          "type": "address"
        }
      ],
      "stateMutability": "view",
      "type": "function"
    },
    {
      "inputs": [
        {
          "internalType": "address",
          "name": "owner",
          "type": "address"
        },
        {
          "internalType": "address",
          "name": "operator",
          "type": "address"
        }
      ],
      "name": "isApprovedForAll",
      "outputs": [
        {
          "internalType": "bool",
          "name": "",
          "type": "bool"
        }
      ],
      "stateMutability": "view",
      "type": "function"
    },
    {
      "inputs": [],
      "name": "name",
      "outputs": [
        {
          "internalType": "string",
          "name": "",
          "type": "string"
        }
      ],
      "stateMutability": "view",
      "type": "function"
    },
    {
      "inputs": [
        {
          "internalType": "uint256",
          "name": "tokenId",
          "type": "uint256"
        }
      ],
      "name": "ownerOf",
      "outputs": [
        {
          "internalType": "address",
          "name": "",
          "type": "address"
        }
      ],
      "stateMutability": "view",
      "type": "function"
    },
    {
      "inputs": [
        {
          "internalType": "uint256",
          "name": "tokenId",
          "type": "uint256"
        },
        {
          "internalType": "uint256",
          "name": "price",
          "type": "uint256"
        }
      ],
      "name": "resellToken",
      "outputs": [],
      "stateMutability": "payable",
      "type": "function"
    },
    {
      "inputs": [
        {
          "internalType": "address",
          "name": "from",
          "type": "address"
        },
        {
          "internalType": "address",
          "name": "to",
          "type": "address"
        },
        {
          "internalType": "uint256",
          "name": "tokenId",
          "type": "uint256"
        }
      ],
      "name": "safeTransferFrom",
      "outputs": [],
      "stateMutability": "nonpayable",
      "type": "function"
    },
    {
      "inputs": [
        {
          "internalType": "address",
          "name": "from",
          "type": "address"
        },
        {
          "internalType": "address",
          "name": "to",
          "type": "address"
        },
        {
          "internalType": "uint256",
          "name": "tokenId",
          "type": "uint256"
        },
        {
          "internalType": "bytes",
          "name": "_data",
          "type": "bytes"
        }
      ],
      "name": "safeTransferFrom",
      "outputs": [],
      "stateMutability": "nonpayable",
      "type": "function"
    },
    {
      "inputs": [
        {
          "internalType": "address",
          "name": "operator",
          "type": "address"
        },
        {
          "internalType": "bool",
          "name": "approved",
          "type": "bool"
        }
      ],
      "name": "setApprovalForAll",
      "outputs": [],
      "stateMutability": "nonpayable",
      "type": "function"
    },
    {
      "inputs": [
        {
          "internalType": "bytes4",
          "name": "interfaceId",
          "type": "bytes4"
        }
      ],
      "name": "supportsInterface",
      "outputs": [
        {
          "internalType": "bool",
          "name": "",
          "type": "bool"
        }
      ],
      "stateMutability": "view",
      "type": "function"
    },
    {
      "inputs": [],
      "name": "symbol",
      "outputs": [
        {
          "internalType": "string",
          "name": "",
          "type": "string"
        }
      ],
      "stateMutability": "view",
      "type": "function"
    },
    {
      "inputs": [
        {
          "internalType": "uint256",
          "name": "tokenId",
          "type": "uint256"
        }
      ],
      "name": "tokenURI",
      "outputs": [
        {
          "internalType": "string",
          "name": "",
          "type": "string"
        }
      ],
      "stateMutability": "view",
      "type": "function"
    },
    {
      "inputs": [
        {
          "internalType": "address",
          "name": "from",
          "type": "address"
        },
        {
          "internalType": "address",
          "name": "to",
          "type": "address"
        },
        {
          "internalType": "uint256",
          "name": "tokenId",
          "type": "uint256"
        }
      ],
      "name": "transferFrom",
      "outputs": [],
      "stateMutability": "nonpayable",
      "type": "function"
    },
    {
      "inputs": [
        {
          "internalType": "uint256",
          "name": "_listingPrice",
          "type": "uint256"
        }
      ],
      "name": "updateListingPrice",
      "outputs": [],
      "stateMutability": "payable",
      "type": "function"
    }
  ],
  "bytecode": "0x608060405260006009553480156200001657600080fd5b50604080518082018252601081526f4d657461766572736520546f6b656e7360801b6020808301918252835180850190945260048452631351551560e21b9084015281519192916200006b916000916200009c565b508051620000819060019060208401906200009c565b5050600a80546001600160a01b03191633179055506200017f565b828054620000aa9062000142565b90600052602060002090601f016020900481019282620000ce576000855562000119565b82601f10620000e957805160ff191683800117855562000119565b8280016001018555821562000119579182015b8281111562000119578251825591602001919060010190620000fc565b50620001279291506200012b565b5090565b5b808211156200012757600081556001016200012c565b600181811c908216806200015757607f821691505b602082108114156200017957634e487b7160e01b600052602260045260246000fd5b50919050565b61264c806200018f6000396000f3fe6080604052600436106101755760003560e01c806370a08231116100cb578063ae677aa31161007f578063c87b56dd11610059578063c87b56dd146103dd578063e219fc75146103fd578063e985e9c51461041057600080fd5b8063ae677aa314610397578063b88d4fde146103aa578063be9af536146103ca57600080fd5b80638ad2d5a7116100b05780638ad2d5a71461032957806395d89b4114610362578063a22cb4651461037757600080fd5b806370a08231146102f657806372b3b6201461031657600080fd5b806312e855851161012d57806342842e0e1161010757806342842e0e146102a157806345f8fa80146102c15780636352211e146102d657600080fd5b806312e855851461024d578063202e37401461026c57806323b872dd1461028157600080fd5b8063081812fc1161015e578063081812fc146101d1578063095ea7b3146102095780630f08efe01461022b57600080fd5b806301ffc9a71461017a57806306fdde03146101af575b600080fd5b34801561018657600080fd5b5061019a6101953660046122f5565b610459565b60405190151581526020015b60405180910390f35b3480156101bb57600080fd5b506101c46104f6565b6040516101a691906124cf565b3480156101dd57600080fd5b506101f16101ec366004612383565b610588565b6040516001600160a01b0390911681526020016101a6565b34801561021557600080fd5b506102296102243660046122cc565b610622565b005b34801561023757600080fd5b50610240610754565b6040516101a69190612453565b34801561025957600080fd5b506009545b6040519081526020016101a6565b34801561027857600080fd5b50610240610908565b34801561028d57600080fd5b5061022961029c3660046121de565b610afa565b3480156102ad57600080fd5b506102296102bc3660046121de565b610b81565b3480156102cd57600080fd5b50610240610b9c565b3480156102e257600080fd5b506101f16102f1366004612383565b610d8e565b34801561030257600080fd5b5061025e610311366004612192565b610e19565b61025e61032436600461232d565b610eb3565b34801561033557600080fd5b506101f1610344366004612383565b6000908152600b60205260409020600201546001600160a01b031690565b34801561036e57600080fd5b506101c4610ef5565b34801561038357600080fd5b50610229610392366004612292565b610f04565b6102296103a5366004612383565b610f13565b3480156103b657600080fd5b506102296103c5366004612219565b610f98565b6102296103d8366004612383565b611026565b3480156103e957600080fd5b506101c46103f8366004612383565b61118c565b61022961040b36600461239b565b61131f565b34801561041c57600080fd5b5061019a61042b3660046121ac565b6001600160a01b03918216600090815260056020908152604080832093909416825291909152205460ff1690565b60006001600160e01b031982167f80ac58cd0000000000000000000000000000000000000000000000000000000014806104bc57506001600160e01b031982167f5b5e139f00000000000000000000000000000000000000000000000000000000145b806104f057507f01ffc9a7000000000000000000000000000000000000000000000000000000006001600160e01b03198316145b92915050565b60606000805461050590612551565b80601f016020809104026020016040519081016040528092919081815260200182805461053190612551565b801561057e5780601f106105535761010080835404028352916020019161057e565b820191906000526020600020905b81548152906001019060200180831161056157829003601f168201915b5050505050905090565b6000818152600260205260408120546001600160a01b03166106065760405162461bcd60e51b815260206004820152602c60248201527f4552433732313a20617070726f76656420717565727920666f72206e6f6e657860448201526b34b9ba32b73a103a37b5b2b760a11b60648201526084015b60405180910390fd5b506000908152600460205260409020546001600160a01b031690565b600061062d82610d8e565b9050806001600160a01b0316836001600160a01b031614156106b75760405162461bcd60e51b815260206004820152602160248201527f4552433732313a20617070726f76616c20746f2063757272656e74206f776e6560448201527f720000000000000000000000000000000000000000000000000000000000000060648201526084016105fd565b336001600160a01b03821614806106d357506106d3813361042b565b6107455760405162461bcd60e51b815260206004820152603860248201527f4552433732313a20617070726f76652063616c6c6572206973206e6f74206f7760448201527f6e6572206e6f7220617070726f76656420666f7220616c6c000000000000000060648201526084016105fd565b61074f8383611466565b505050565b6060600061076160075490565b9050600061076e60085490565b60075461077b919061250e565b90506000808267ffffffffffffffff8111156107a757634e487b7160e01b600052604160045260246000fd5b60405190808252806020026020018201604052801561080057816020015b6040805160a0810182526000808252602080830182905292820181905260608201819052608082015282526000199092019101816107c55790505b50905060005b848110156108ff5730600b600061081e8460016124e2565b81526020810191909152604001600020600201546001600160a01b031614156108ed57600061084e8260016124e2565b6000818152600b6020908152604091829020825160a0810184528154815260018201546001600160a01b039081169382019390935260028201549092169282019290925260038201546060820152600482015460ff1615156080820152855192935090918590879081106108d257634e487b7160e01b600052603260045260246000fd5b60209081029190910101526108e86001866124e2565b945050505b806108f78161258c565b915050610806565b50949350505050565b6060600061091560075490565b905060008060005b838110156109785733600b60006109358460016124e2565b81526020810191909152604001600020600201546001600160a01b03161415610966576109636001846124e2565b92505b806109708161258c565b91505061091d565b5060008267ffffffffffffffff8111156109a257634e487b7160e01b600052604160045260246000fd5b6040519080825280602002602001820160405280156109fb57816020015b6040805160a0810182526000808252602080830182905292820181905260608201819052608082015282526000199092019101816109c05790505b50905060005b848110156108ff5733600b6000610a198460016124e2565b81526020810191909152604001600020600201546001600160a01b03161415610ae8576000610a498260016124e2565b6000818152600b6020908152604091829020825160a0810184528154815260018201546001600160a01b039081169382019390935260028201549092169282019290925260038201546060820152600482015460ff161515608082015285519293509091859087908110610acd57634e487b7160e01b600052603260045260246000fd5b6020908102919091010152610ae36001866124e2565b945050505b80610af28161258c565b915050610a01565b610b0433826114d4565b610b765760405162461bcd60e51b815260206004820152603160248201527f4552433732313a207472616e736665722063616c6c6572206973206e6f74206f60448201527f776e6572206e6f7220617070726f76656400000000000000000000000000000060648201526084016105fd565b61074f8383836115c7565b61074f83838360405180602001604052806000815250610f98565b60606000610ba960075490565b905060008060005b83811015610c0c5733600b6000610bc98460016124e2565b81526020810191909152604001600020600101546001600160a01b03161415610bfa57610bf76001846124e2565b92505b80610c048161258c565b915050610bb1565b5060008267ffffffffffffffff811115610c3657634e487b7160e01b600052604160045260246000fd5b604051908082528060200260200182016040528015610c8f57816020015b6040805160a081018252600080825260208083018290529282018190526060820181905260808201528252600019909201910181610c545790505b50905060005b848110156108ff5733600b6000610cad8460016124e2565b81526020810191909152604001600020600101546001600160a01b03161415610d7c576000610cdd8260016124e2565b6000818152600b6020908152604091829020825160a0810184528154815260018201546001600160a01b039081169382019390935260028201549092169282019290925260038201546060820152600482015460ff161515608082015285519293509091859087908110610d6157634e487b7160e01b600052603260045260246000fd5b6020908102919091010152610d776001866124e2565b945050505b80610d868161258c565b915050610c95565b6000818152600260205260408120546001600160a01b0316806104f05760405162461bcd60e51b815260206004820152602960248201527f4552433732313a206f776e657220717565727920666f72206e6f6e657869737460448201527f656e7420746f6b656e000000000000000000000000000000000000000000000060648201526084016105fd565b60006001600160a01b038216610e975760405162461bcd60e51b815260206004820152602a60248201527f4552433732313a2062616c616e636520717565727920666f7220746865207a6560448201527f726f20616464726573730000000000000000000000000000000000000000000060648201526084016105fd565b506001600160a01b031660009081526003602052604090205490565b6000610ec3600780546001019055565b6000610ece60075490565b9050610eda3382611794565b610ee481856118d6565b610eee818461197f565b9392505050565b60606001805461050590612551565b610f0f338383611b12565b5050565b600a546001600160a01b03163314610f935760405162461bcd60e51b815260206004820152603060248201527f4f6e6c79206d61726b6574706c616365206f776e65722063616e20757064617460448201527f65206c697374696e672070726963652e0000000000000000000000000000000060648201526084016105fd565b600955565b610fa233836114d4565b6110145760405162461bcd60e51b815260206004820152603160248201527f4552433732313a207472616e736665722063616c6c6572206973206e6f74206f60448201527f776e6572206e6f7220617070726f76656400000000000000000000000000000060648201526084016105fd565b61102084848484611be1565b50505050565b6000818152600b6020526040902060038101546001909101546001600160a01b0316348211156110c0576040805162461bcd60e51b81526020600482015260248101919091527f506c65617365207375626d6974207468652061736b696e67207072696365206960448201527f6e206f7264657220746f20636f6d706c6574652074686520707572636861736560648201526084016105fd565b6000838152600b602052604090206002810180546001600160a01b0319908116331790915560048201805460ff191660019081179091559091018054909116905561110f600880546001019055565b61111a3033856115c7565b600a546009546040516001600160a01b039092169181156108fc0291906000818181858888f19350505050158015611156573d6000803e3d6000fd5b506040516001600160a01b038216903480156108fc02916000818181858888f19350505050158015611020573d6000803e3d6000fd5b6000818152600260205260409020546060906001600160a01b03166112195760405162461bcd60e51b815260206004820152603160248201527f45524337323155524953746f726167653a2055524920717565727920666f722060448201527f6e6f6e6578697374656e7420746f6b656e00000000000000000000000000000060648201526084016105fd565b6000828152600660205260408120805461123290612551565b80601f016020809104026020016040519081016040528092919081815260200182805461125e90612551565b80156112ab5780601f10611280576101008083540402835291602001916112ab565b820191906000526020600020905b81548152906001019060200180831161128e57829003601f168201915b5050505050905060006112c960408051602081019091526000815290565b90508051600014156112dc575092915050565b81511561130e5780826040516020016112f69291906123e8565b60405160208183030381529060405292505050919050565b61131784611c6a565b949350505050565b6000828152600b60205260409020600201546001600160a01b031633146113ae5760405162461bcd60e51b815260206004820152602a60248201527f4f6e6c79206974656d206f776e65722063616e20706572666f726d207468697360448201527f206f7065726174696f6e0000000000000000000000000000000000000000000060648201526084016105fd565b600954341461140b5760405162461bcd60e51b8152602060048201526024808201527f5072696365206d75737420626520657175616c20746f206c697374696e6720706044820152637269636560e01b60648201526084016105fd565b6000828152600b6020526040902060048101805460ff19169055600381018290556001810180546001600160a01b03199081163317909155600290910180549091163017905561145b6008611d5f565b610f0f3330846115c7565b600081815260046020526040902080546001600160a01b0319166001600160a01b038416908117909155819061149b82610d8e565b6001600160a01b03167f8c5be1e5ebec7d5bd14f71427d1e84f3dd0314c0f7b2291e5b200ac8c7c3b92560405160405180910390a45050565b6000818152600260205260408120546001600160a01b031661154d5760405162461bcd60e51b815260206004820152602c60248201527f4552433732313a206f70657261746f7220717565727920666f72206e6f6e657860448201526b34b9ba32b73a103a37b5b2b760a11b60648201526084016105fd565b600061155883610d8e565b9050806001600160a01b0316846001600160a01b031614806115935750836001600160a01b031661158884610588565b6001600160a01b0316145b8061131757506001600160a01b0380821660009081526005602090815260408083209388168352929052205460ff16611317565b826001600160a01b03166115da82610d8e565b6001600160a01b0316146116565760405162461bcd60e51b815260206004820152602560248201527f4552433732313a207472616e736665722066726f6d20696e636f72726563742060448201527f6f776e657200000000000000000000000000000000000000000000000000000060648201526084016105fd565b6001600160a01b0382166116d15760405162461bcd60e51b8152602060048201526024808201527f4552433732313a207472616e7366657220746f20746865207a65726f2061646460448201527f726573730000000000000000000000000000000000000000000000000000000060648201526084016105fd565b6116dc600082611466565b6001600160a01b038316600090815260036020526040812080546001929061170590849061250e565b90915550506001600160a01b03821660009081526003602052604081208054600192906117339084906124e2565b909155505060008181526002602052604080822080546001600160a01b0319166001600160a01b0386811691821790925591518493918716917fddf252ad1be2c89b69c2b068fc378daa952ba7f163c4a11628f55a4df523b3ef91a4505050565b6001600160a01b0382166117ea5760405162461bcd60e51b815260206004820181905260248201527f4552433732313a206d696e7420746f20746865207a65726f206164647265737360448201526064016105fd565b6000818152600260205260409020546001600160a01b03161561184f5760405162461bcd60e51b815260206004820152601c60248201527f4552433732313a20746f6b656e20616c7265616479206d696e7465640000000060448201526064016105fd565b6001600160a01b03821660009081526003602052604081208054600192906118789084906124e2565b909155505060008181526002602052604080822080546001600160a01b0319166001600160a01b03861690811790915590518392907fddf252ad1be2c89b69c2b068fc378daa952ba7f163c4a11628f55a4df523b3ef908290a45050565b6000828152600260205260409020546001600160a01b03166119605760405162461bcd60e51b815260206004820152602e60248201527f45524337323155524953746f726167653a2055524920736574206f66206e6f6e60448201527f6578697374656e7420746f6b656e00000000000000000000000000000000000060648201526084016105fd565b6000828152600660209081526040909120825161074f92840190612067565b600081116119cf5760405162461bcd60e51b815260206004820152601c60248201527f5072696365206d757374206265206174206c656173742031207765690000000060448201526064016105fd565b600954341015611a2d5760405162461bcd60e51b8152602060048201526024808201527f5072696365206d75737420626520657175616c20746f206c697374696e6720706044820152637269636560e01b60648201526084016105fd565b6040805160a08101825283815233602080830182815230848601818152606086018881526000608088018181528b8252600b909652979097209551865591516001860180546001600160a01b03199081166001600160a01b0393841617909155925160028701805490941691161790915593516003840155516004909201805460ff191692151592909217909155611ac591846115c7565b604080513381523060208201529081018290526000606082015282907fb640004f1d14576d0c209e240cad0410e0d8c0c33a09375861fbadae2588a98d9060800160405180910390a25050565b816001600160a01b0316836001600160a01b03161415611b745760405162461bcd60e51b815260206004820152601960248201527f4552433732313a20617070726f766520746f2063616c6c65720000000000000060448201526064016105fd565b6001600160a01b03838116600081815260056020908152604080832094871680845294825291829020805460ff191686151590811790915591519182527f17307eab39ab6107e8899845ad3d59bd9653f200f220920489ca2b5937696c31910160405180910390a3505050565b611bec8484846115c7565b611bf884848484611db6565b6110205760405162461bcd60e51b815260206004820152603260248201527f4552433732313a207472616e7366657220746f206e6f6e20455243373231526560448201527f63656976657220696d706c656d656e746572000000000000000000000000000060648201526084016105fd565b6000818152600260205260409020546060906001600160a01b0316611cf75760405162461bcd60e51b815260206004820152602f60248201527f4552433732314d657461646174613a2055524920717565727920666f72206e6f60448201527f6e6578697374656e7420746f6b656e000000000000000000000000000000000060648201526084016105fd565b6000611d0e60408051602081019091526000815290565b90506000815111611d2e5760405180602001604052806000815250610eee565b80611d3884611f19565b604051602001611d499291906123e8565b6040516020818303038152906040529392505050565b805480611dae5760405162461bcd60e51b815260206004820152601b60248201527f436f756e7465723a2064656372656d656e74206f766572666c6f77000000000060448201526064016105fd565b600019019055565b60006001600160a01b0384163b15611f0e57604051630a85bd0160e11b81526001600160a01b0385169063150b7a0290611dfa903390899088908890600401612417565b602060405180830381600087803b158015611e1457600080fd5b505af1925050508015611e44575060408051601f3d908101601f19168201909252611e4191810190612311565b60015b611ef4573d808015611e72576040519150601f19603f3d011682016040523d82523d6000602084013e611e77565b606091505b508051611eec5760405162461bcd60e51b815260206004820152603260248201527f4552433732313a207472616e7366657220746f206e6f6e20455243373231526560448201527f63656976657220696d706c656d656e746572000000000000000000000000000060648201526084016105fd565b805181602001fd5b6001600160e01b031916630a85bd0160e11b149050611317565b506001949350505050565b606081611f5957505060408051808201909152600181527f3000000000000000000000000000000000000000000000000000000000000000602082015290565b8160005b8115611f835780611f6d8161258c565b9150611f7c9050600a836124fa565b9150611f5d565b60008167ffffffffffffffff811115611fac57634e487b7160e01b600052604160045260246000fd5b6040519080825280601f01601f191660200182016040528015611fd6576020820181803683370190505b5090505b841561131757611feb60018361250e565b9150611ff8600a866125a7565b6120039060306124e2565b60f81b81838151811061202657634e487b7160e01b600052603260045260246000fd5b60200101907effffffffffffffffffffffffffffffffffffffffffffffffffffffffffffff1916908160001a905350612060600a866124fa565b9450611fda565b82805461207390612551565b90600052602060002090601f01602090048101928261209557600085556120db565b82601f106120ae57805160ff19168380011785556120db565b828001600101855582156120db579182015b828111156120db5782518255916020019190600101906120c0565b506120e79291506120eb565b5090565b5b808211156120e757600081556001016120ec565b600067ffffffffffffffff8084111561211b5761211b6125e7565b604051601f8501601f19908116603f01168101908282118183101715612143576121436125e7565b8160405280935085815286868601111561215c57600080fd5b858560208301376000602087830101525050509392505050565b80356001600160a01b038116811461218d57600080fd5b919050565b6000602082840312156121a3578081fd5b610eee82612176565b600080604083850312156121be578081fd5b6121c783612176565b91506121d560208401612176565b90509250929050565b6000806000606084860312156121f2578081fd5b6121fb84612176565b925061220960208501612176565b9150604084013590509250925092565b6000806000806080858703121561222e578081fd5b61223785612176565b935061224560208601612176565b925060408501359150606085013567ffffffffffffffff811115612267578182fd5b8501601f81018713612277578182fd5b61228687823560208401612100565b91505092959194509250565b600080604083850312156122a4578182fd5b6122ad83612176565b9150602083013580151581146122c1578182fd5b809150509250929050565b600080604083850312156122de578182fd5b6122e783612176565b946020939093013593505050565b600060208284031215612306578081fd5b8135610eee816125fd565b600060208284031215612322578081fd5b8151610eee816125fd565b6000806040838503121561233f578182fd5b823567ffffffffffffffff811115612355578283fd5b8301601f81018513612365578283fd5b61237485823560208401612100565b95602094909401359450505050565b600060208284031215612394578081fd5b5035919050565b600080604083850312156123ad578182fd5b50508035926020909101359150565b600081518084526123d4816020860160208601612525565b601f01601f19169290920160200192915050565b600083516123fa818460208801612525565b83519083019061240e818360208801612525565b01949350505050565b60006001600160a01b0380871683528086166020840152508360408301526080606083015261244960808301846123bc565b9695505050505050565b602080825282518282018190526000919060409081850190868401855b828110156124c257815180518552868101516001600160a01b03908116888701528682015116868601526060808201519086015260809081015115159085015260a09093019290850190600101612470565b5091979650505050505050565b602081526000610eee60208301846123bc565b600082198211156124f5576124f56125bb565b500190565b600082612509576125096125d1565b500490565b600082821015612520576125206125bb565b500390565b60005b83811015612540578181015183820152602001612528565b838111156110205750506000910152565b600181811c9082168061256557607f821691505b6020821081141561258657634e487b7160e01b600052602260045260246000fd5b50919050565b60006000198214156125a0576125a06125bb565b5060010190565b6000826125b6576125b66125d1565b500690565b634e487b7160e01b600052601160045260246000fd5b634e487b7160e01b600052601260045260246000fd5b634e487b7160e01b600052604160045260246000fd5b6001600160e01b03198116811461261357600080fd5b5056fea264697066735822122022c0d6566e8cd625b31358dd05eb7a1081e3086e2dbedf294c2944291659843a64736f6c63430008040033",
  "linkReferences": {},
  "deployedLinkReferences": {}
}